{
  "contractName": "PaymentSystem",
  "abi": [
    {
      "inputs": [
        {
          "internalType": "address",
          "name": "_tokenAddress",
          "type": "address"
        }
      ],
      "stateMutability": "nonpayable",
      "type": "constructor"
    },
    {
      "anonymous": false,
      "inputs": [
        {
          "indexed": false,
          "internalType": "address",
          "name": "buyer",
          "type": "address"
        },
        {
          "indexed": false,
          "internalType": "string",
          "name": "name",
          "type": "string"
        }
      ],
      "name": "NewBuyerRegistered",
      "type": "event"
    },
    {
      "anonymous": false,
      "inputs": [
        {
          "indexed": true,
          "internalType": "address",
          "name": "buyer",
          "type": "address"
        },
        {
          "indexed": true,
          "internalType": "address",
          "name": "seller",
          "type": "address"
        },
        {
          "indexed": false,
          "internalType": "uint256",
          "name": "amount",
          "type": "uint256"
        },
        {
          "indexed": false,
          "internalType": "uint256",
          "name": "timestamp",
          "type": "uint256"
        }
      ],
      "name": "NewPayment",
      "type": "event"
    },
    {
      "inputs": [
        {
          "internalType": "address",
          "name": "",
          "type": "address"
        }
      ],
      "name": "buyers",
      "outputs": [
        {
          "internalType": "string",
          "name": "",
          "type": "string"
        }
      ],
      "stateMutability": "view",
      "type": "function"
    },
    {
      "inputs": [
        {
          "internalType": "address",
          "name": "",
          "type": "address"
        },
        {
          "internalType": "uint256",
          "name": "",
          "type": "uint256"
        }
      ],
      "name": "paymentsByBuyer",
      "outputs": [
        {
          "internalType": "uint256",
          "name": "amount",
          "type": "uint256"
        },
        {
          "internalType": "address",
          "name": "buyer",
          "type": "address"
        },
        {
          "internalType": "address",
          "name": "seller",
          "type": "address"
        },
        {
          "internalType": "uint256",
          "name": "timestamp",
          "type": "uint256"
        }
      ],
      "stateMutability": "view",
      "type": "function"
    },
    {
      "inputs": [
        {
          "internalType": "address",
          "name": "",
          "type": "address"
        },
        {
          "internalType": "uint256",
          "name": "",
          "type": "uint256"
        }
      ],
      "name": "paymentsBySeller",
      "outputs": [
        {
          "internalType": "uint256",
          "name": "amount",
          "type": "uint256"
        },
        {
          "internalType": "address",
          "name": "buyer",
          "type": "address"
        },
        {
          "internalType": "address",
          "name": "seller",
          "type": "address"
        },
        {
          "internalType": "uint256",
          "name": "timestamp",
          "type": "uint256"
        }
      ],
      "stateMutability": "view",
      "type": "function"
    },
    {
      "inputs": [
        {
          "internalType": "address",
          "name": "",
          "type": "address"
        }
      ],
      "name": "sellers",
      "outputs": [
        {
          "internalType": "string",
          "name": "",
          "type": "string"
        }
      ],
      "stateMutability": "view",
      "type": "function"
    },
    {
      "inputs": [
        {
          "internalType": "string",
          "name": "_name",
          "type": "string"
        }
      ],
      "name": "registerBuyer",
      "outputs": [],
      "stateMutability": "nonpayable",
      "type": "function"
    },
    {
      "inputs": [
        {
          "internalType": "string",
          "name": "_name",
          "type": "string"
        }
      ],
      "name": "registerSeller",
      "outputs": [],
      "stateMutability": "nonpayable",
      "type": "function"
    },
    {
      "inputs": [
        {
          "internalType": "address",
          "name": "_seller",
          "type": "address"
        },
        {
          "internalType": "uint256",
          "name": "_amount",
          "type": "uint256"
        }
      ],
      "name": "makePayment",
      "outputs": [],
      "stateMutability": "nonpayable",
      "type": "function"
    },
    {
      "inputs": [
        {
          "internalType": "address",
          "name": "_buyer",
          "type": "address"
        }
      ],
      "name": "viewPaymentsByBuyer",
      "outputs": [
        {
          "components": [
            {
              "internalType": "uint256",
              "name": "amount",
              "type": "uint256"
            },
            {
              "internalType": "address",
              "name": "buyer",
              "type": "address"
            },
            {
              "internalType": "address",
              "name": "seller",
              "type": "address"
            },
            {
              "internalType": "uint256",
              "name": "timestamp",
              "type": "uint256"
            }
          ],
          "internalType": "struct PaymentSystem.Payment[]",
          "name": "",
          "type": "tuple[]"
        }
      ],
      "stateMutability": "view",
      "type": "function"
    },
    {
      "inputs": [
        {
          "internalType": "address",
          "name": "_seller",
          "type": "address"
        }
      ],
      "name": "viewPaymentsBySeller",
      "outputs": [
        {
          "components": [
            {
              "internalType": "uint256",
              "name": "amount",
              "type": "uint256"
            },
            {
              "internalType": "address",
              "name": "buyer",
              "type": "address"
            },
            {
              "internalType": "address",
              "name": "seller",
              "type": "address"
            },
            {
              "internalType": "uint256",
              "name": "timestamp",
              "type": "uint256"
            }
          ],
          "internalType": "struct PaymentSystem.Payment[]",
          "name": "",
          "type": "tuple[]"
        }
      ],
      "stateMutability": "view",
      "type": "function"
    },
    {
      "inputs": [],
      "name": "viewAllPayments",
      "outputs": [
        {
          "components": [
            {
              "internalType": "uint256",
              "name": "amount",
              "type": "uint256"
            },
            {
              "internalType": "address",
              "name": "buyer",
              "type": "address"
            },
            {
              "internalType": "address",
              "name": "seller",
              "type": "address"
            },
            {
              "internalType": "uint256",
              "name": "timestamp",
              "type": "uint256"
            }
          ],
          "internalType": "struct PaymentSystem.Payment[]",
          "name": "",
          "type": "tuple[]"
        }
      ],
      "stateMutability": "view",
      "type": "function"
    }
  ],
  "bytecode": "0x60806040523480156200001157600080fd5b5060405162001ecc38038062001ecc8339818101604052810190620000379190620000e8565b806000806101000a81548173ffffffffffffffffffffffffffffffffffffffff021916908373ffffffffffffffffffffffffffffffffffffffff160217905550506200011a565b600080fd5b600073ffffffffffffffffffffffffffffffffffffffff82169050919050565b6000620000b08262000083565b9050919050565b620000c281620000a3565b8114620000ce57600080fd5b50565b600081519050620000e281620000b7565b92915050565b6000602082840312156200010157620001006200007e565b5b60006200011184828501620000d1565b91505092915050565b611da2806200012a6000396000f3fe608060405234801561001057600080fd5b506004361061009e5760003560e01c80637288af09116100665780637288af091461016e57806397a993aa146101a1578063d4cbf3e1146101d1578063d9ed6da7146101ef578063f98cf07c1461021f5761009e565b80630c6a27bc146100a3578063527869fe146100bf57806354de1839146100f257806363b48852146101225780636d47ab721461013e575b600080fd5b6100bd60048036038101906100b8919061137e565b61023b565b005b6100d960048036038101906100d4919061145b565b6102c4565b6040516100e994939291906114b9565b60405180910390f35b61010c600480360381019061010791906114fe565b610351565b604051610119919061164d565b60405180910390f35b61013c6004803603810190610137919061137e565b610553565b005b610158600480360381019061015391906114fe565b6105a3565b60405161016591906116ee565b60405180910390f35b6101886004803603810190610183919061145b565b610643565b60405161019894939291906114b9565b60405180910390f35b6101bb60048036038101906101b691906114fe565b6106d0565b6040516101c891906116ee565b60405180910390f35b6101d9610770565b6040516101e6919061164d565b60405180910390f35b610209600480360381019061020491906114fe565b610b3a565b604051610216919061164d565b60405180910390f35b6102396004803603810190610234919061145b565b610d3c565b005b80600260003373ffffffffffffffffffffffffffffffffffffffff1673ffffffffffffffffffffffffffffffffffffffff1681526020019081526020016000209081610287919061191c565b507fac15e27a78d7fe1cc92d13061695d48aeb4c31d4526fbd2db28def2788945c9b33826040516102b99291906119ee565b60405180910390a150565b600460205281600052604060002081815481106102e057600080fd5b9060005260206000209060040201600091509150508060000154908060010160009054906101000a900473ffffffffffffffffffffffffffffffffffffffff16908060020160009054906101000a900473ffffffffffffffffffffffffffffffffffffffff16908060030154905084565b60608173ffffffffffffffffffffffffffffffffffffffff163373ffffffffffffffffffffffffffffffffffffffff1614806103b857503073ffffffffffffffffffffffffffffffffffffffff163373ffffffffffffffffffffffffffffffffffffffff16145b6103f7576040517f08c379a00000000000000000000000000000000000000000000000000000000081526004016103ee90611a6a565b60405180910390fd5b600360008373ffffffffffffffffffffffffffffffffffffffff1673ffffffffffffffffffffffffffffffffffffffff168152602001908152602001600020805480602002602001604051908101604052809291908181526020016000905b828210156105485783829060005260206000209060040201604051806080016040529081600082015481526020016001820160009054906101000a900473ffffffffffffffffffffffffffffffffffffffff1673ffffffffffffffffffffffffffffffffffffffff1673ffffffffffffffffffffffffffffffffffffffff1681526020016002820160009054906101000a900473ffffffffffffffffffffffffffffffffffffffff1673ffffffffffffffffffffffffffffffffffffffff1673ffffffffffffffffffffffffffffffffffffffff16815260200160038201548152505081526020019060010190610456565b505050509050919050565b80600160003373ffffffffffffffffffffffffffffffffffffffff1673ffffffffffffffffffffffffffffffffffffffff168152602001908152602001600020908161059f919061191c565b5050565b600160205280600052604060002060009150905080546105c29061173f565b80601f01602080910402602001604051908101604052809291908181526020018280546105ee9061173f565b801561063b5780601f106106105761010080835404028352916020019161063b565b820191906000526020600020905b81548152906001019060200180831161061e57829003601f168201915b505050505081565b6003602052816000526040600020818154811061065f57600080fd5b9060005260206000209060040201600091509150508060000154908060010160009054906101000a900473ffffffffffffffffffffffffffffffffffffffff16908060020160009054906101000a900473ffffffffffffffffffffffffffffffffffffffff16908060030154905084565b600260205280600052604060002060009150905080546106ef9061173f565b80601f016020809104026020016040519081016040528092919081815260200182805461071b9061173f565b80156107685780601f1061073d57610100808354040283529160200191610768565b820191906000526020600020905b81548152906001019060200180831161074b57829003601f168201915b505050505081565b60603073ffffffffffffffffffffffffffffffffffffffff163373ffffffffffffffffffffffffffffffffffffffff16146107e0576040517f08c379a00000000000000000000000000000000000000000000000000000000081526004016107d790611a6a565b60405180910390fd5b600080600090505b600460003373ffffffffffffffffffffffffffffffffffffffff1673ffffffffffffffffffffffffffffffffffffffff168152602001908152602001600020805490508110156108b557600460003373ffffffffffffffffffffffffffffffffffffffff1673ffffffffffffffffffffffffffffffffffffffff168152602001908152602001600020818154811061088357610882611a8a565b5b906000526020600020906004020160000154826108a09190611ae8565b915080806108ad90611b1c565b9150506107e8565b5060008167ffffffffffffffff8111156108d2576108d1611253565b5b60405190808252806020026020018201604052801561090b57816020015b6108f86111d0565b8152602001906001900390816108f05790505b5090506000805b600460003373ffffffffffffffffffffffffffffffffffffffff1673ffffffffffffffffffffffffffffffffffffffff16815260200190815260200160002080549050811015610b30576000600460003373ffffffffffffffffffffffffffffffffffffffff1673ffffffffffffffffffffffffffffffffffffffff168152602001908152602001600020805480602002602001604051908101604052809291908181526020016000905b82821015610aaf5783829060005260206000209060040201604051806080016040529081600082015481526020016001820160009054906101000a900473ffffffffffffffffffffffffffffffffffffffff1673ffffffffffffffffffffffffffffffffffffffff1673ffffffffffffffffffffffffffffffffffffffff1681526020016002820160009054906101000a900473ffffffffffffffffffffffffffffffffffffffff1673ffffffffffffffffffffffffffffffffffffffff1673ffffffffffffffffffffffffffffffffffffffff168152602001600382015481525050815260200190600101906109bd565b50505050905060005b8151811015610b1b57818181518110610ad457610ad3611a8a565b5b6020026020010151858581518110610aef57610aee611a8a565b5b60200260200101819052508380610b0590611b1c565b9450508080610b1390611b1c565b915050610ab8565b50508080610b2890611b1c565b915050610912565b5081935050505090565b60608173ffffffffffffffffffffffffffffffffffffffff163373ffffffffffffffffffffffffffffffffffffffff161480610ba157503073ffffffffffffffffffffffffffffffffffffffff163373ffffffffffffffffffffffffffffffffffffffff16145b610be0576040517f08c379a0000000000000000000000000000000000000000000000000000000008152600401610bd790611a6a565b60405180910390fd5b600460008373ffffffffffffffffffffffffffffffffffffffff1673ffffffffffffffffffffffffffffffffffffffff168152602001908152602001600020805480602002602001604051908101604052809291908181526020016000905b82821015610d315783829060005260206000209060040201604051806080016040529081600082015481526020016001820160009054906101000a900473ffffffffffffffffffffffffffffffffffffffff1673ffffffffffffffffffffffffffffffffffffffff1673ffffffffffffffffffffffffffffffffffffffff1681526020016002820160009054906101000a900473ffffffffffffffffffffffffffffffffffffffff1673ffffffffffffffffffffffffffffffffffffffff1673ffffffffffffffffffffffffffffffffffffffff16815260200160038201548152505081526020019060010190610c3f565b505050509050919050565b8060008054906101000a900473ffffffffffffffffffffffffffffffffffffffff1673ffffffffffffffffffffffffffffffffffffffff1663dd62ed3e33306040518363ffffffff1660e01b8152600401610d98929190611b64565b602060405180830381865afa158015610db5573d6000803e3d6000fd5b505050506040513d601f19601f82011682018060405250810190610dd99190611ba2565b1015610e1a576040517f08c379a0000000000000000000000000000000000000000000000000000000008152600401610e1190611c1b565b60405180910390fd5b60008054906101000a900473ffffffffffffffffffffffffffffffffffffffff1673ffffffffffffffffffffffffffffffffffffffff166323b872dd3330846040518463ffffffff1660e01b8152600401610e7793929190611c3b565b6020604051808303816000875af1158015610e96573d6000803e3d6000fd5b505050506040513d601f19601f82011682018060405250810190610eba9190611caa565b610ef9576040517f08c379a0000000000000000000000000000000000000000000000000000000008152600401610ef090611d23565b60405180910390fd5b600060405180608001604052808381526020013373ffffffffffffffffffffffffffffffffffffffff1681526020018473ffffffffffffffffffffffffffffffffffffffff168152602001428152509050600360003373ffffffffffffffffffffffffffffffffffffffff1673ffffffffffffffffffffffffffffffffffffffff1681526020019081526020016000208190806001815401808255809150506001900390600052602060002090600402016000909190919091506000820151816000015560208201518160010160006101000a81548173ffffffffffffffffffffffffffffffffffffffff021916908373ffffffffffffffffffffffffffffffffffffffff16021790555060408201518160020160006101000a81548173ffffffffffffffffffffffffffffffffffffffff021916908373ffffffffffffffffffffffffffffffffffffffff160217905550606082015181600301555050600460008473ffffffffffffffffffffffffffffffffffffffff1673ffffffffffffffffffffffffffffffffffffffff1681526020019081526020016000208190806001815401808255809150506001900390600052602060002090600402016000909190919091506000820151816000015560208201518160010160006101000a81548173ffffffffffffffffffffffffffffffffffffffff021916908373ffffffffffffffffffffffffffffffffffffffff16021790555060408201518160020160006101000a81548173ffffffffffffffffffffffffffffffffffffffff021916908373ffffffffffffffffffffffffffffffffffffffff1602179055506060820151816003015550508273ffffffffffffffffffffffffffffffffffffffff163373ffffffffffffffffffffffffffffffffffffffff167ff62e438cfa75c1fc743ada55b6e1437d24c0e0f83ddf8a7b62ef765e65285e8684426040516111c3929190611d43565b60405180910390a3505050565b604051806080016040528060008152602001600073ffffffffffffffffffffffffffffffffffffffff168152602001600073ffffffffffffffffffffffffffffffffffffffff168152602001600081525090565b6000604051905090565b600080fd5b600080fd5b600080fd5b600080fd5b6000601f19601f8301169050919050565b7f4e487b7100000000000000000000000000000000000000000000000000000000600052604160045260246000fd5b61128b82611242565b810181811067ffffffffffffffff821117156112aa576112a9611253565b5b80604052505050565b60006112bd611224565b90506112c98282611282565b919050565b600067ffffffffffffffff8211156112e9576112e8611253565b5b6112f282611242565b9050602081019050919050565b82818337600083830152505050565b600061132161131c846112ce565b6112b3565b90508281526020810184848401111561133d5761133c61123d565b5b6113488482856112ff565b509392505050565b600082601f83011261136557611364611238565b5b813561137584826020860161130e565b91505092915050565b6000602082840312156113945761139361122e565b5b600082013567ffffffffffffffff8111156113b2576113b1611233565b5b6113be84828501611350565b91505092915050565b600073ffffffffffffffffffffffffffffffffffffffff82169050919050565b60006113f2826113c7565b9050919050565b611402816113e7565b811461140d57600080fd5b50565b60008135905061141f816113f9565b92915050565b6000819050919050565b61143881611425565b811461144357600080fd5b50565b6000813590506114558161142f565b92915050565b600080604083850312156114725761147161122e565b5b600061148085828601611410565b925050602061149185828601611446565b9150509250929050565b6114a481611425565b82525050565b6114b3816113e7565b82525050565b60006080820190506114ce600083018761149b565b6114db60208301866114aa565b6114e860408301856114aa565b6114f5606083018461149b565b95945050505050565b6000602082840312156115145761151361122e565b5b600061152284828501611410565b91505092915050565b600081519050919050565b600082825260208201905092915050565b6000819050602082019050919050565b61156081611425565b82525050565b61156f816113e7565b82525050565b60808201600082015161158b6000850182611557565b50602082015161159e6020850182611566565b5060408201516115b16040850182611566565b5060608201516115c46060850182611557565b50505050565b60006115d68383611575565b60808301905092915050565b6000602082019050919050565b60006115fa8261152b565b6116048185611536565b935061160f83611547565b8060005b8381101561164057815161162788826115ca565b9750611632836115e2565b925050600181019050611613565b5085935050505092915050565b6000602082019050818103600083015261166781846115ef565b905092915050565b600081519050919050565b600082825260208201905092915050565b60005b838110156116a957808201518184015260208101905061168e565b60008484015250505050565b60006116c08261166f565b6116ca818561167a565b93506116da81856020860161168b565b6116e381611242565b840191505092915050565b6000602082019050818103600083015261170881846116b5565b905092915050565b7f4e487b7100000000000000000000000000000000000000000000000000000000600052602260045260246000fd5b6000600282049050600182168061175757607f821691505b60208210810361176a57611769611710565b5b50919050565b60008190508160005260206000209050919050565b60006020601f8301049050919050565b600082821b905092915050565b6000600883026117d27fffffffffffffffffffffffffffffffffffffffffffffffffffffffffffffffff82611795565b6117dc8683611795565b95508019841693508086168417925050509392505050565b6000819050919050565b600061181961181461180f84611425565b6117f4565b611425565b9050919050565b6000819050919050565b611833836117fe565b61184761183f82611820565b8484546117a2565b825550505050565b600090565b61185c61184f565b61186781848461182a565b505050565b5b8181101561188b57611880600082611854565b60018101905061186d565b5050565b601f8211156118d0576118a181611770565b6118aa84611785565b810160208510156118b9578190505b6118cd6118c585611785565b83018261186c565b50505b505050565b600082821c905092915050565b60006118f3600019846008026118d5565b1980831691505092915050565b600061190c83836118e2565b9150826002028217905092915050565b6119258261166f565b67ffffffffffffffff81111561193e5761193d611253565b5b611948825461173f565b61195382828561188f565b600060209050601f8311600181146119865760008415611974578287015190505b61197e8582611900565b8655506119e6565b601f19841661199486611770565b60005b828110156119bc57848901518255600182019150602085019450602081019050611997565b868310156119d957848901516119d5601f8916826118e2565b8355505b6001600288020188555050505b505050505050565b6000604082019050611a0360008301856114aa565b8181036020830152611a1581846116b5565b90509392505050565b7f556e617574686f72697a65640000000000000000000000000000000000000000600082015250565b6000611a54600c8361167a565b9150611a5f82611a1e565b602082019050919050565b60006020820190508181036000830152611a8381611a47565b9050919050565b7f4e487b7100000000000000000000000000000000000000000000000000000000600052603260045260246000fd5b7f4e487b7100000000000000000000000000000000000000000000000000000000600052601160045260246000fd5b6000611af382611425565b9150611afe83611425565b9250828201905080821115611b1657611b15611ab9565b5b92915050565b6000611b2782611425565b91507fffffffffffffffffffffffffffffffffffffffffffffffffffffffffffffffff8203611b5957611b58611ab9565b5b600182019050919050565b6000604082019050611b7960008301856114aa565b611b8660208301846114aa565b9392505050565b600081519050611b9c8161142f565b92915050565b600060208284031215611bb857611bb761122e565b5b6000611bc684828501611b8d565b91505092915050565b7f496e73756666696369656e7420616c6c6f77616e636500000000000000000000600082015250565b6000611c0560168361167a565b9150611c1082611bcf565b602082019050919050565b60006020820190508181036000830152611c3481611bf8565b9050919050565b6000606082019050611c5060008301866114aa565b611c5d60208301856114aa565b611c6a604083018461149b565b949350505050565b60008115159050919050565b611c8781611c72565b8114611c9257600080fd5b50565b600081519050611ca481611c7e565b92915050565b600060208284031215611cc057611cbf61122e565b5b6000611cce84828501611c95565b91505092915050565b7f5472616e73666572206661696c65640000000000000000000000000000000000600082015250565b6000611d0d600f8361167a565b9150611d1882611cd7565b602082019050919050565b60006020820190508181036000830152611d3c81611d00565b9050919050565b6000604082019050611d58600083018561149b565b611d65602083018461149b565b939250505056fea26469706673582212208aed47828edc43c0bc224f544840384e2cd85a39e243780681636bbcfae9f89464736f6c63430008120033",
  "immutableReferences": {},
  "source": "pragma solidity ^0.8.0;\r\n\r\nimport \"./MyToken.sol\";\r\n\r\ncontract PaymentSystem {\r\n    MyToken private token;\r\n\r\n    // Struct for representing a payment\r\n    struct Payment {\r\n        uint256 amount;\r\n        address buyer;\r\n        address seller;\r\n        uint256 timestamp;\r\n    }\r\n\r\n    // Mapping of seller addresses to their name\r\n    mapping(address => string) public sellers;\r\n\r\n    // Mapping of buyer addresses to their name\r\n    mapping(address => string) public buyers;\r\n\r\n    // Mapping of buyer addresses to their payments\r\n    mapping(address => Payment[]) public paymentsByBuyer;\r\n\r\n    // Mapping of seller addresses to their payments\r\n    mapping(address => Payment[]) public paymentsBySeller;\r\n\r\n    // Event for recording new buyer registration\r\n    event NewBuyerRegistered(address buyer, string name);\r\n\r\n    // Event for recording new payment\r\n    event NewPayment(address indexed buyer, address indexed seller, uint256 amount, uint256 timestamp);\r\n\r\n    constructor(address _tokenAddress) {\r\n        token = MyToken(_tokenAddress);\r\n    }\r\n\r\n    // Function to register a new buyer\r\n    function registerBuyer(string memory _name) public {\r\n        buyers[msg.sender] = _name;\r\n        emit NewBuyerRegistered(msg.sender, _name);\r\n    }\r\n\r\n    // Function to register a new seller\r\n    function registerSeller(string memory _name) public {\r\n        sellers[msg.sender] = _name;\r\n    }\r\n\r\n    // Function to make a payment to a seller\r\n    function makePayment(address _seller, uint256 _amount) public {\r\n        require(token.allowance(msg.sender, address(this)) >= _amount, \"Insufficient allowance\");\r\n        require(token.transferFrom(msg.sender, address(this), _amount), \"Transfer failed\");\r\n\r\n        Payment memory payment = Payment(_amount, msg.sender, _seller, block.timestamp);\r\n        paymentsByBuyer[msg.sender].push(payment);\r\n        paymentsBySeller[_seller].push(payment);\r\n\r\n        emit NewPayment(msg.sender, _seller, _amount, block.timestamp);\r\n    }\r\n\r\n    // Function to view all payments made by a buyer\r\n    function viewPaymentsByBuyer(address _buyer) public view returns (Payment[] memory) {\r\n        require(msg.sender == _buyer || msg.sender == address(this), \"Unauthorized\");\r\n\r\n        return paymentsByBuyer[_buyer];\r\n    }\r\n\r\n    // Function to view all payments received by a seller\r\n    function viewPaymentsBySeller(address _seller) public view returns (Payment[] memory) {\r\n        require(msg.sender == _seller || msg.sender == address(this), \"Unauthorized\");\r\n\r\n        return paymentsBySeller[_seller];\r\n    }\r\n\r\n    // Function to view all payments made on the system\r\n    function viewAllPayments() public view returns (Payment[] memory) {\r\n        require(msg.sender == address(this), \"Unauthorized\");\r\n\r\n        uint256 numPayments;\r\n        for (uint256 i = 0; i < paymentsBySeller[msg.sender].length; i++) {\r\n            numPayments += paymentsBySeller[msg.sender][i].amount;\r\n        }\r\n\r\n        Payment[] memory allPayments = new Payment[](numPayments);\r\n        uint256 currentIndex = 0;\r\n\r\n        for (uint256 i = 0; i < paymentsBySeller[msg.sender].length; i++) {\r\n            Payment[] memory sellerPayments = paymentsBySeller[msg.sender];\r\n\r\n            for (uint256 j = 0; j < sellerPayments.length; j++) {\r\n                allPayments[currentIndex] = sellerPayments[j];\r\n                currentIndex++;\r\n            }\r\n        }\r\n\r\n        return allPayments;\r\n    }\r\n}\r\n",
  "sourcePath": "C:\\Users\\Dell\\OneDrive\\Desktop\\campusPAY\\contracts\\PaymentSystem.sol",
  "compiler": {
    "name": "solc",
    "version": "0.8.18+commit.87f61d96.Emscripten.clang"
  },
  "schemaVersion": "3.4.12",
  "updatedAt": "2023-02-20T17:14:40.343Z",
  "devdoc": {
    "kind": "dev",
    "methods": {},
    "version": 1
  },
  "userdoc": {
    "kind": "user",
    "methods": {},
    "version": 1
  }
}